:020000020000FC
:100000000C942A000C94BE000C94BF000C94C00009
:100010000C94C1000C94C2000C94C3000C94C40056
:100020000C94C5000C94C6000C94C7000C94C80036
:100030000C94C9000C94CA000C94CB000C94CC0016
:100040000C94CD000C94CE000C94CF000C94D000F6
:100050000C94D10004E00EBF0FE50DBF00EF0ABB0A
:100060000FEF0BBBDC9800000000C89B2BC0C99BA6
:100070002EC0CA9B31C0CB9B34C0DC9ADD980000F7
:100080000000C89B33C0C99B36C0CA9B39C0CB9BFC
:100090003CC0DD9ADE9800000000C89B3BC0C99BB5
:1000A0003EC0CA9B41C0CB9B44C0DE9ADF98000093
:1000B0000000C89B43C0C99B46C0CA9B49C0CB9B9C
:1000C0004CC0CECF4FD0C89BFECF4CD0C9CF4AD06A
:1000D000C99BFECF47D0C4CF45D0CA9BFECF42D0EC
:1000E000BFCF40D0CB9BFECF3DD0BACF3BD0C89B3B
:1000F000FECF38D0B5CF36D0C99BFECF33D0B0CFEE
:1001000031D0CA9BFECF2ED0ABCF2CD0CB9BFECF15
:1001100029D0A6CF27D0C89BFECF24D0A1CF22D0F4
:10012000C99BFECF1FD09CCF1DD0CA9BFECF1AD03B
:1001300097CF18D0CB9BFECF15D092CF13D0C89BB2
:10014000FECF10D08DCF0ED0C99BFECF0BD088CF65
:1001500009D0CA9BFECF06D083CF04D0CB9BFECF65
:1001600001D07ECFD5E6E4EAEA95F1F7DA95D9F742
:10017000D1E0DA95F1F70000000008951895189580
:100180001895189518951895189518951895189507
:1001900018951895189518951895189518951895F7
:0401A0001895189501
:00000001FF
