:020000020000FC
:100000000C942A000C9480000C9481000C948200C3
:100010000C9483000C9484000C9485000C9486004E
:100020000C9487000C9488000C9489000C948A002E
:100030000C948B000C948C000C948D000C948E000E
:100040000C948F000C9490000C9491000C949200EE
:100050000C949C0004E00EBF0FE50DBF78940FEFE9
:100060000BBB04BB01BB10E020E030E040E0C89BCC
:1000700003C0CF9B1AC0FBCF00E002BF0DE003BF5F
:1000800002EC0CBF03E008BF02E009BF2DD0C89B03
:10009000FECF2AD0ECCF03E008BF00E009BF00E0AC
:1000A00010E020E015BB12BB0895F5DF1DD0CF9BFB
:1000B000FECF1AD0DCCF00E0312F412F307F4F70C0
:1000C00043954A3031F010E0132B142B303629F0D1
:1000D0002EC040E1340F40E0F6CF10E023952530EC
:1000E00009F025C0D8DF23C0D5E6E4EAEA95F1F7A8
:1000F000DA95D9F7D1E0DA95F1F70000000008951C
:100100001895189518951895189518951895189587
:100110001895189518951895189518951895189577
:10012000189518953FB73F930395043121F225BBED
:0A01300012BB3F913FBF18951895D0
:00000001FF
