:020000020000FC
:100000000C942A000C945A000C9475000C94760001
:100010000C9477000C9478000C9479000C947A007E
:100020000C947B000C947C000C947D000C947E005E
:100030000C947F000C9480000C9481000C9482003E
:100040000C9483000C9484000C9485000C9486001E
:100050000C94870004E00EBF0FE50DBF78940FEFFE
:100060000ABB02BB02E005BF00EE0ABF00E40BBF03
:1000700001E020E10395073009F0FCCF01E0FACF61
:10008000A5E6B4EABA95F1F7AA95D9F7A1E0AA9541
:10009000F1F700000000089518E01FC012E21DC033
:1000A00019E41BC015E519C01DE517C017E715C0F9
:1000B0001FE713C02FB72F93E3DF82990EC00130E3
:1000C00059F3023059F3033059F3043059F3053032
:1000D00059F3063059F3073059F31BBBD1DF829B2C
:1000E000FECFCEDF2F912FBF189518951895189534
:1000F0001895189518951895189518951895189598
:100100001895189518951895189518951895189587
:00000001FF
