:020000020000FC
:100000000C942A000C946A000C946B000C946C0005
:100010000C946D000C946E000C946F000C947000A6
:100020000C9471000C9472000C9473000C94740086
:100030000C9475000C9476000C9477000C94780066
:100040000C9479000C947A000C947B000C947C0046
:100050000C947D0004E00EBF0FE50DBF0FEF0BBB4E
:1000600007BB789400E002BF09E703BF0FEF15C09C
:10007000C89B03C0CF9B11C0FBCF003049F40030B8
:1000800051F018BB0CBF1AD0C89BFECF17D0F0CFD1
:10009000035310E0F4CF14E0F4CF0F3F49F40F3FC7
:1000A00059F018BB0CBF0AD0CF9BFECF07D0E0CFD2
:1000B00023E3020F10E0F3CF12E0F3CFD5E6E4EA3A
:1000C000EA95F1F7DA95D9F7D1E0DA95F1F7000082
:1000D0000000089518951895189518951895189575
:1000E00018951895189518951895189518951895A8
:0C00F000189518951895189518951895F6
:00000001FF
