:020000020000FC
:100000000C942A000C9458000C9475000C94760003
:100010000C9477000C9478000C9479000C947A007E
:100020000C947B000C947C000C947D000C947E005E
:100030000C947F000C9480000C9481000C9482003E
:100040000C9483000C9484000C9485000C9486001E
:100050000C94870004E00EBF0FE50DBF789403E019
:1000600005BF00EE0ABF00E40BBF0FEF04BB01E0C9
:1000700005BB12D0000F05BB0FD007FFFBCFF7CF9A
:10008000D5E6E4EAEA95F1F7DA95D9F7D1E0DA9521
:10009000F1F7000000000895A2E1BCEBC4ECCA95A2
:1000A000F1F7BA95D9F7AA95C1F7000000000895B5
:1000B0001FB71F93AF93BF93CF93E2DF829B09C01B
:1000C00010E020E0109515BBE7DF2395263009F0FE
:1000D000F9CF20E0D5DF8299FECFD2DF05BBAF910B
:1000E000BF91CF911F911FBF18951895189518951E
:1000F0001895189518951895189518951895189598
:100100001895189518951895189518951895189587
:00000001FF
