:020000020000FC
:100000000C942A000C9463000C9464000C9465001A
:100010000C9466000C9467000C9468000C946900C2
:100020000C946A000C946B000C946C000C946D00A2
:100030000C946E000C946F000C9470000C94710082
:100040000C9472000C9473000C9474000C94750062
:100050000C94760004E00EBF0FE50DBF00E00ABB74
:100060000FEF0BBB04BB00E005BB09B300950030EC
:10007000A1F00130A1F00230A1F00330A1F0043072
:10008000A1F00530A1F00630A1F00730A1F0083052
:10009000A1F00930A1F001C0E8CF1FE312C016E0C3
:1000A00010C01BE50EC01FE40CC016E60AC01DE61A
:1000B00008C01DE706C017E004C01FE702C017E62E
:1000C00000C015BBD2CF189518951895189518959E
:1000D00018951895189518951895189518951895B8
:0E00E000189518951895189518951895189557
:00000001FF
