:020000020000FC
:100000000C942A000C94C0000C94C1000C94C20003
:100010000C94C3000C94C4000C94C5000C94C6004E
:100020000C94C7000C94C8000C94C9000C94CA002E
:100030000C94CB000C94CC000C94CD000C94CE000E
:100040000C94CF000C94D0000C94D1000C94D200EE
:100050000C94D30004E00EBF0FE50DBF0FEF0ABBF9
:1000600007BB01BB05BB00E010E020E040E050E032
:10007000989B08C0FDCF78D077D076D075D0089502
:1000800040E0FECF5CD0F7DF22D0F5DF4AD0F3DFCF
:10009000999B0FC012C053D0EEDF20D0ECDF41D0CF
:1000A000EADF50FF0EC010C05FD0989BFECF5CD03F
:1000B000DFCF50E02BD0DFDFEECF51E018D0DBDF19
:1000C000EACF15D0D8DFF0CF21D0D5DFEDCF42E099
:1000D0002395223DA9F042BB3ED0F9CF41E02395C4
:1000E0002E3171F042BB37D040E042BBF7CF0695CE
:1000F000003041F023952F3F19F00BBB2CD0F7CFE8
:1001000020E0089508E0F9CF01E008C0000F0031B9
:10011000D9F30030C9F323952F3F91F30BBB1BD0CC
:10012000F5CF1695103039F023952C3D49F318BBC7
:1001300012D011D0F6CF18E3FACF11E008C0110F9A
:100140001031D9F31030C9F323952634C9F218BB06
:1001500002D001D0F4CFD7E0EDEEEA95F1F7DA95D1
:10016000D9F7000000000895A5E6B4EABA95F1F7C2
:10017000AA95D9F7A1E0AA95F1F70000000008952B
:100180001895189518951895189518951895189507
:1001900018951895189518951895189518951895F7
:0801A0001895189518951895A3
:00000001FF
