:020000020000FC
:100000000C942A000C9476000C9477000C947800E1
:100010000C9479000C947A000C947B000C947C0076
:100020000C947D000C947E000C947F000C94800056
:100030000C9481000C9482000C9483000C94840036
:100040000C9485000C9486000C9487000C94880016
:100050000C94890004E00EBF0FE50DBF0FEF01BB4C
:100060000BBB10E01ED0C89B01C0FDCF04D032D026
:100070002ED030D0F8CF13951130A9F01230A9F05E
:100080001330A9F01430A9F01530A9F01630A9F0FA
:100090001730A9F01830A9F01930A9F010E001C00C
:1000A00008952FE312C026E010C02BE50EC02FE408
:1000B0000CC026E60AC02DE608C02DE706C027E0E2
:1000C00004C02FE702C027E600C022BB0895C89BEA
:1000D000FECF089525E634EA3A95F1F72A95D9F747
:1000E00021E02A95F1F70000000008951895189571
:1000F0001895189518951895189518951895189598
:100100001895189518951895189518951895189587
:040110001895189591
:00000001FF
