:020000020000FC
:100000000C942A000C943A000C943B000C943C0095
:100010000C943D000C943E000C943F000C94400066
:100020000C9441000C9442000C9443000C94440046
:100030000C9445000C9446000C9447000C94480026
:100040000C9449000C944A000C944B000C944C0006
:100050000C944D0004E00EBF0FE50DBF00E00ABB9D
:100060000FEF0BBB0FEF04BB00E005BB39B33095BE
:1000700035BBFCCF189518951895189518951895B7
:100080001895189518951895189518951895189508
:0C00900018951895189518951895189556
:00000001FF
