:020000020000FC
:100000000C942A000C94E5000C94E6000C94E70094
:100010000C94E8000C94E9000C94EA000C94EB00BA
:100020000C94EC000C94ED000C94EE000C94EF009A
:100030000C94F0000C94F1000C94F2000C94F3007A
:100040000C94F4000C94F5000C94F6000C94F7005A
:100050000C94F80004E00EBF0FE50DBF0FEF07BBD7
:1000600004BB789400E002BF0CE603BF93D000EF1E
:1000700001BB0FEF02BB949800000000809B4BC0B7
:10008000819B43C0829B3BC0839B34C0949A9598CC
:1000900000000000809B55C0819B4DC0829B45C0E5
:1000A000839B54C0959A969800000000809B5EC088
:1000B000819B57C0829B4FC0839B32C0969A979872
:1000C00000000000809B07C0819B0AC0829B0DC07E
:1000D000839B51C0CECF6DD0809BFECF6AD0C9CF5D
:1000E00068D0819BFECF65D0C4CF63D0829BFECF0A
:1000F00060D0BFCF5ED0839BFECF5BD0BACF40D065
:1001000058D0809BFECF55D0B4CF49D052D0819BE0
:10011000FECF4FD0AECF4DD0829BFECF4AD0A9CFDD
:1001200048D0839BFECF45D0A4CF2FD042D0809B18
:10013000FECF3FD09ECF38D03CD0819BFECF39D070
:1001400098CF37D0829BFECF34D093CF32D0839BD1
:10015000FECF2FD08ECF1ED02CD0809BFECF29D0AB
:1001600088CF27D0819BFECF24D083CF22D0829B03
:10017000FECF1FD07ECF1DD0839BFECF1AD079CF6C
:100180000BE00CBF01E005BB089501E10CBF02E0EC
:1001900005BB089508E10CBF03E005BB08950FE11E
:1001A0000CBF04E005BB089506E20CBF05E005BBEB
:1001B0000895D5E6E4EAEA95F1F7DA95D9F7D1E0C2
:1001C000DA95F1F700000000089518951895189534
:1001D00018951895189518951895189518951895B7
:1001E00018951895189518951895189518951895A7
:0201F000189560
:00000001FF
