:020000020000FC
:100000000C942A000C9421010C9422010C942301DD
:100010000C9424010C9425010C9426010C942701C6
:100020000C9428010C9429010C942A010C942B01A6
:100030000C942C010C942D010C942E010C942F0186
:100040000C9430010C9431010C9432010C94330166
:100050000C94340104E00EBF0FE50DBF00EF0ABBA6
:100060001FEF11BB10E00FEF0BBBDC98000000008E
:10007000C89B2BC0C99B35C0CA9B3FC0CB9B49C006
:10008000DC9ADD9800000000C89B48C0C99B52C0A4
:10009000CA9B5CC0CB9B66C0DD9ADE980000000066
:1000A000C89B6AC0C99B74C0CA9B7EC0CB9B88C0DA
:1000B000DE9ADF9800000000C89B87C0C99B91C0F2
:1000C000CA9B9BC0CB9BA5C0CECF110F110F110FA8
:1000D000110F28E0120F12BBA8D0C89BFECFA5D0ED
:1000E000C2CF110F110F110F110F22E0120F12BB0F
:1000F0009CD0C99BFECF99D0B6CF110F110F110F15
:10010000110F2EE0120F12BB90D0CA9BFECF8DD0E4
:10011000AACF8BD0CB9BFECF88D0A5CF110F110FCC
:10012000110F110F24E0120F12BB7FD0C89BFECF1E
:100130007CD099CF110F110F110F110F2AE0120F60
:1001400012BB73D0C99BFECF70D08DCF110F110F92
:10015000110F110F21E0120F12BB67D0CA9BFECF07
:1001600064D081CF110F110F110F110F12BB5DD091
:10017000CB9BFECF5AD077CF110F110F110F110F5C
:100180002CE0120F12BB51D0C89BFECF4ED06BCFCC
:10019000110F110F110F110F26E0120F12BB45D0D6
:1001A000C99BFECF42D05FCF110F110F110F110F5E
:1001B00029E0120F12BB39D0CA9BFECF36D053CFE5
:1001C00034D0CB9BFECF31D04ECF110F110F110F7A
:1001D000110F25E0120F12BB28D0C89BFECF25D0EF
:1001E00042CF110F110F110F110F2DE0120F12BB83
:1001F0001CD0C99BFECF19D036CF110F110F110F94
:10020000110F23E0120F12BB10D0CA9BFECF0DD0EE
:100210002ACF110F110F110F110F2BE0120F12BB6C
:1002200004D0CB9BFECF01D01ECFD5E6E4EAEA9501
:10023000F1F7DA95D9F7D1E0DA95F1F7000000008F
:100240000895189518951895189518951895189556
:100250001895189518951895189518951895189536
:0A0260001895189518951895189533
:00000001FF
