:020000020000FC
:100000000C942A000C9461000C9462000C94630020
:100010000C9464000C9465000C9466000C946700CA
:100020000C9468000C9469000C946A000C946B00AA
:100030000C946C000C946D000C946E000C946F008A
:100040000C9470000C9471000C9472000C9473006A
:100050000C94740004E00EBF0FE50DBF0FEF08BB5A
:100060000ABB00E0B09B03C0B19B0FC0FBCF06955D
:10007000003019F00BBB11D0F5CF00E1F8CF00E054
:1000800004C001E00BBB09D0EDCF000F0031B9F384
:100090000030B9F30BBB01D0E5CFD1E2E4E6EA953D
:1000A000F1F7DA95D9F700000895A5E6B4EABA9514
:1000B000F1F7AA95D9F7A1E0AA95F1F700000000A1
:1000C00008951895189518951895189518951895D8
:1000D00018951895189518951895189518951895B8
:0A00E00018951895189518951895B5
:00000001FF
