:020000020000FC
:100000000C942A000C9496000C949B000C94A00075
:100010000C94A5000C94AA000C94AF000C94B400AE
:100020000C94B9000C94BE000C94C3000C94C8004E
:100030000C94CD000C94D2000C94D7000C94DC00EE
:100040000C94E1000C94E6000C94EB000C94F0008E
:100050000C94F60004E00EBF0FE50DBF0FEF0BBBD5
:100060000027C9D04427552761E015D0C89B01C09F
:10007000FDCF01E0D9D01DD00EECD6D02DD00DECA7
:10008000D3D03BD01CD101E0CFD005D044D0C89B09
:10009000FECF41D0EBCFF2E0ECEDE40FF51FC895B9
:1000A000002D033219F0C3D04395F5CF44275527CF
:1000B0000895F2E0E6EEE40FF51FC895002D033237
:1000C00019F0B5D04395F5CF44275527089560E042
:1000D000F6D00EECA9D00BC0F2E0EAEFE40FF51F6A
:1000E000C895002D033231F0A2D0623081F34395E0
:1000F0006395F2CF442755270895F2E0E6EFE40F29
:10010000F51FC895002D033219F091D04395F5CF16
:10011000442755270895D7E9E6E0F2E9FA95F1F783
:10012000EA95D9F7DA95C1F7000008950FB70F9354
:100130000F910FBF18950FB70F930F910FBF189521
:100140000FB70F930F910FBF18950FB70F930F9124
:100150000FBF18950FB70F930F910FBF18950FB7DB
:100160000F930F910FBF18950FB70F930F910FBFFC
:1001700018950FB70F930F910FBF18950FB70F93E7
:100180000F910FBF18950FB70F930F910FBF1895D1
:100190000FB70F930F910FBF18950FB70F930F91D4
:1001A0000FBF18950FB70F930F910FBF18950FB78B
:1001B0000F930F910FBF18950FB70F930F910FBFAC
:1001C00018950FB70F930F910FBF18950FB70F9397
:1001D0000F910FBF18950FB70F930F910FBF189581
:1001E0000FB70F93B3950F910FBF18950FB70F93DC
:1001F0000F910FBF18952AD03BD008E320D054D0E0
:1002000008E31DD048D008E31AD045D008E317D042
:1002100042D008E009D001E007D006E005D00CE0AC
:1002200003D000E801D008950AD014D0089505BB8A
:10023000959A9698979A26D097980CD0089505BBD2
:1002400095989698979A1ED0979808950FEF04BBAB
:1002500001BB089500E004BB9598969A979A12D036
:1002600097989F99FBCF959896980FEF04BB0895A8
:1002700017EC28EC2A95F1F71A95D9F711E01A95A1
:10028000F1F7089516E826EC2A95F1F71A95D9F7B3
:1002900000000000089512E024E82A95F1F71A956D
:1002A000D9F700000000089511E32EED2A95F1F72B
:1002B0001A95D9F716E01A95F1F70000089518E499
:1002C0002CEB34EC3A95F1F72A95D9F71A95C1F74A
:1002D00012E01A95F1F7000000000895456E2065C0
:1002E0007370657261234E756D65726F73207072E5
:1002F000696D6F73232346696E2330323033303596
:1003000030373131313331373139323332393331BA
:100310003337343134333437353335393631363792
:0E0320003731373337393833383939372323FB
:00000001FF
