:020000020000FC
:100000000C942A000C9475000C9476000C947700E4
:100010000C9478000C9479000C947A000C947B007A
:100020000C947C000C947D000C947E000C947F005A
:100030000C9480000C9481000C9482000C9483003A
:100040000C9484000C9485000C9486000C9487001A
:100050000C94880004E00EBF0FE50DBF0FEF04BB4A
:100060000BBB40E1C89B07C0CA9B0BC0CC9B11C017
:10007000CE9B15C0F7CF11271AD02BD01ED029D078
:10008000F1CF139514FD112712D023D019D021D010
:10009000E9CF1FD018D01DD0222709D0E3CF19D027
:1000A00015D017D0239524FD222701D0DBCF312F87
:1000B000349F302D320F35BB0895C89BFECF089575
:1000C000CA9BFECF0895CC9BFECF0895CE9BFECF5A
:1000D0000895D5E6E4EAEA95F1F7DA95D9F7D1E0A3
:1000E000DA95F1F700000000089518951895189515
:1000F0001895189518951895189518951895189598
:100100001895189518951895189518951895189587
:02011000189540
:00000001FF
