:020000020000FC
:100000000C942A000C94DE000C94DF000C94E000A9
:100010000C94E1000C94E2000C94E3000C94E400D6
:100020000C94E5000C94E6000C94E7000C94E800B6
:100030000C94E9000C94EA000C94EB000C94EC0096
:100040000C94ED000C94EE000C94EF000C94F00076
:100050000C94F10004E00EBF0FE50DBF0FEF07BBDE
:10006000789455D07BD0000000000000000001E132
:100070000CBF8CD080D04BD001E10CBF6FD0000002
:1000800000000000000003E10CBF80D074D001E14B
:100090000CBF64D063D00FE00CBF60D003E10CBF95
:1000A0005DD001E10CBF5AD00FE00CBF6FD00EE065
:1000B0000CBF6CD00FE00CBF51D003E10CBF4ED091
:1000C00001E10CBF4BD00FE00CBF60D00EE00CBFC5
:1000D0005DD00FE00CBF42D001E10CBF3FD003E187
:1000E0000CBF3CD001E10CBF39D00AE10CBF43D0BA
:1000F0000ED001E10CBF32D0000000000000000073
:1001000003E10CBF43D037D00BE003BFFFCF00E0CB
:1001100002BF0BE103BF0FE00CBF03E008BF02E02A
:1001200009BF1CD01BD00EE00CBF18D00CE00CBFD8
:1001300015D014D00EE00CBF11D00FE00CBF0ED0C4
:1001400001E10CBF0BD003E10CBF08D007D001E1E7
:100150000CBF04D00FE00CBF01D00895D7E0E9E652
:10016000F6E9FA95F1F7EA95D9F7DA95C1F7D8E00B
:10017000DA95F1F70895AFE6BBE0C5EBCA95F1F764
:10018000BA95D9F7AA95C1F7000008957CED8CEFD8
:100190008A95F1F77A95D9F776E07A95F1F700002C
:1001A0000000089545E654EA5A95F1F74A95D9F7C3
:1001B00041E04A95F1F70000000008951895189560
:1001C00018951895189518951895189518951895C7
:1001D00018951895189518951895189518951895B7
:0401E00018951895C1
:00000001FF
